:100000000C9446000C9465000C9465000C946500FB
:100010000C9465000C9465000C9465000C946500CC
:100020000C9465000C9465000C9465000C946500BC
:100030000C9465000C94DE000C9465000C94650033
:100040000C9465000C9465000C9465000C9465009C
:100050000C9465000C9465000C9465000C9465008C
:100060000C9465000C9465000C9465000C9465007C
:100070000C9465000C9465000C9465000C9465006C
:100080000C9465000C9465000C94650011241FBE4F
:10009000CFEFD0E4DEBFCDBF11E0A0E0B1E0ECECEB
:1000A000F5E000E00BBF02C007900D92A431B1074C
:1000B000D9F721E0A4E1B1E001C01D92A532B20759
:1000C000E1F70E944C020C94E4020C940000CF93E0
:1000D000DF9300D01F92CDB7DEB789837B836A831D
:1000E00089818A3031F48A819B81BC018DE00E9434
:1000F000670080EC90E0FC018081882F90E08072A6
:100100009927892BB1F386EC90E02981FC012083AB
:1001100080E090E00F900F900F90DF91CF910895C5
:10012000CF93DF93CDB7DEB781E890E02BE0FC0101
:10013000208388E890E02DE730E0FC0131832083C4
:100140008FE690E022E0FC01208384E890E0FC014F
:100150001182108280910E0190910F01A0911001E7
:10016000B09111018093150190931601A09317018E
:10017000B09318018FE590E02FE530E0F901208180
:100180002068FC0120830000DF91CF910895CF9378
:10019000DF93CDB7DEB781E890E0FC01108200006C
:1001A000DF91CF910895CF93DF93CDB7DEB781E094
:1001B000809314010000DF91CF9108951F920F9258
:1001C00000905F000F92112400905B000F922F931C
:1001D0003F934F935F936F937F938F939F93AF93CF
:1001E000BF93EF93FF93CF93DF93CDB7DEB78091AB
:1001F000150190911601A0911701B0911801019776
:10020000A109B1098093150190931601A0931701DC
:10021000B09318018091150190911601A0911701DA
:10022000B0911801892B8A2B8B2B91F40E94D3005B
:1002300080910E0190910F01A0911001B0911101D8
:100240008093150190931601A0931701B0931801A4
:100250000000DF91CF91FF91EF91BF91AF919F91FE
:100260008F917F916F915F914F913F912F910F905F
:1002700000925B000F9000925F000F901F90189506
:10028000CF93DF9300D000D0CDB7DEB769837A83F8
:100290008B839C8389819A81AB81BC8180930E0181
:1002A00090930F01A0931001B093110180910E0162
:1002B00090910F01A0911001B0911101809315014F
:1002C00090931601A0931701B093180100000F90AE
:1002D0000F900F900F90DF91CF910895CF93DF9300
:1002E000CDB7DEB78091230190912401892B09F0CD
:1002F00005C0109224011092230100008091230177
:1003000090912401892B09F024C080911901882340
:1003100049F481E080931A01809119018F5F8093E5
:10032000190116C080911901813049F482E080934F
:100330001A01809119018F5F8093190109C0809182
:100340001901823029F484E080931A011092190176
:1003500000000000DF91CF910895CF93DF93CDB7D8
:10036000DEB78091210190912201892B09F005C00F
:1003700010922201109221010000809121019091A0
:100380002201892B09F006C080911201809580938B
:10039000120100000000DF91CF910895CF93DF9309
:1003A000CDB7DEB780911F0190912001892B09F014
:1003B00005C01092200110921F01000080911F01C2
:1003C00090912001892B09F022C085E290E02091D4
:1003D0001B01222F30E02170332722953295307F88
:1003E0003227207F3227422F20911201222F30E026
:1003F00021703327220F331F220F331F220F331F89
:10040000242B30911A01232BFC01208300000000D3
:10041000DF91CF910895CF93DF93CDB7DEB7809171
:100420001C0190911D01009719F0019789F01FC0E0
:1004300080911E01882339F081E090E090931D01A6
:1004400080931C0115C010921D0110921C0110C058
:1004500080911E01882339F081E090E090931D0186
:1004600080931C0104C010921D0110921C01000019
:1004700080911C0190911D01009719F0019721F0C6
:1004800007C010921B0104C081E080931B01000093
:100490000000DF91CF910895CF93DF93CDB7DEB702
:1004A00029970FB6F894DEBF0FBECDBF81E290E072
:1004B000FC01108282E290E02FEFFC01208384E2B5
:1004C00090E02FEFFC01208385E290E0FC01108298
:1004D0008CE291E0A0E0B0E089839A83AB83BC8397
:1004E00088EE93E0A0E0B0E08D839E83AF83B88771
:1004F00082E0898780E290E0FC018081882F90E093
:100500008170992721E0892B09F020E0822F8093C8
:100510001E0162E070E080E090E00E9440010E94D5
:100520009000109224011092230110922201109247
:1005300021011092200110921F0189819A81AB81C3
:10054000BC818C329140A105B10530F00E946E0152
:1005500019821A821B821C828D819E81AF81B8858F
:10056000883E9340A105B10530F00E94AD011D8287
:100570001E821F8218868985823018F00E940B0225
:1005800019860E94CE010000809114018823E1F3B6
:100590001092140189819A81AB81BC810296A11DC0
:1005A000B11D89839A83AB83BC838D819E81AF818A
:1005B000B8850296A11DB11D8D839E83AF83B88738
:0C05C00089858E5F8987B9CFF894FFCF42
:1005CC0000000002000000006700000000000100B5
:0405DC00000001001A
:00000001FF
