:100000000C9446000C9465000C9465000C946500FB
:100010000C9465000C9465000C9465000C946500CC
:100020000C9465000C9465000C9465000C946500BC
:100030000C9465000C94DE000C9465000C94650033
:100040000C9465000C9465000C9465000C9465009C
:100050000C9465000C9465000C9465000C9465008C
:100060000C9465000C9465000C9465000C9465007C
:100070000C9465000C9465000C9465000C9465006C
:100080000C9465000C9465000C94650011241FBE4F
:10009000CFEFD0E4DEBFCDBF11E0A0E0B1E0EEEEE7
:1000A000F4E000E00BBF02C007900D92A431B1074D
:1000B000D9F721E0A4E1B1E001C01D92A132B2075D
:1000C000E1F70E94FE010C9475020C940000CF939E
:1000D000DF9300D01F92CDB7DEB789837B836A831D
:1000E00089818A3031F48A819B81BC018DE00E9434
:1000F000670080EC90E0FC018081882F90E08072A6
:100100009927892BB1F386EC90E02981FC012083AB
:1001100080E090E00F900F900F90DF91CF910895C5
:10012000CF93DF93CDB7DEB781E890E02BE0FC0101
:10013000208388E890E02DE730E0FC0131832083C4
:100140008FE690E022E0FC01208384E890E0FC014F
:100150001182108280910E0190910F01A0911001E7
:10016000B09111018093150190931601A09317018E
:10017000B09318018FE590E02FE530E0F901208180
:100180002068FC0120830000DF91CF910895CF9378
:10019000DF93CDB7DEB781E890E0FC01108200006C
:1001A000DF91CF910895CF93DF93CDB7DEB781E094
:1001B000809314010000DF91CF9108951F920F9258
:1001C00000905F000F92112400905B000F922F931C
:1001D0003F934F935F936F937F938F939F93AF93CF
:1001E000BF93EF93FF93CF93DF93CDB7DEB78091AB
:1001F000150190911601A0911701B0911801019776
:10020000A109B1098093150190931601A0931701DC
:10021000B09318018091150190911601A0911701DA
:10022000B0911801892B8A2B8B2B91F40E94D3005B
:1002300080910E0190910F01A0911001B0911101D8
:100240008093150190931601A0931701B0931801A4
:100250000000DF91CF91FF91EF91BF91AF919F91FE
:100260008F917F916F915F914F913F912F910F905F
:1002700000925B000F9000925F000F901F90189506
:10028000CF93DF9300D000D0CDB7DEB769837A83F8
:100290008B839C8389819A81AB81BC8180930E0181
:1002A00090930F01A0931001B093110180910E0162
:1002B00090910F01A0911001B0911101809315014F
:1002C00090931601A0931701B093180100000F90AE
:1002D0000F900F900F90DF91CF910895CF93DF9300
:1002E000CDB7DEB780911F0190912001892B09F0D5
:1002F00005C01092200110921F01000080911F0183
:1003000090912001892B09F024C080911901882344
:1003100049F481E080931A01809119018F5F8093E5
:10032000190116C080911901813049F482E080934F
:100330001A01809119018F5F8093190109C0809182
:100340001901823029F484E080931A011092190176
:1003500000000000DF91CF910895CF93DF93CDB7D8
:10036000DEB780911D0190911E01892B09F005C017
:1003700010921E0110921D01000080911D019091AC
:100380001E01892B09F006C080911201809580938F
:10039000120100000000DF91CF910895CF93DF9309
:1003A000CDB7DEB780911B0190911C01892B09F01C
:1003B00005C010921C0110921B01000080911B01CE
:1003C00090911C01892B09F015C085E290E02091E5
:1003D0001201222F30E021703327220F331F220F0A
:1003E000331F220F331F322F20911A01232BFC01C0
:1003F000208300000000DF91CF910895CF93DF9319
:10040000CDB7DEB728970FB6F894DEBF0FBECDBFCD
:1004100084E290E02FEFFC01208385E290E0FC0174
:1004200010828CE291E0A0E0B0E089839A83AB83F4
:10043000BC8388EE93E0A0E0B0E08D839E83AF8321
:10044000B88764E670E080E090E00E9440010E947E
:1004500090001092200110921F0110921E01109224
:100460001D0110921C0110921B0189819A81AB81A0
:10047000BC818C329140A105B10530F00E946E0123
:1004800019821A821B821C828D819E81AF81B88560
:10049000883E9340A105B10530F00E94AD011D8258
:1004A0001E821F8218860E94CE01000080911401D6
:1004B0008823E1F31092140189819A81AB81BC8178
:1004C0008C599F4FAF4FBF4F89839A83AB83BC83B7
:1004D0008D819E81AF81B8858C599F4FAF4FBF4FA3
:0E04E0008D839E83AF83B887C0CFF894FFCF83
:1004EE000000000200000000670000000000010094
:0404FE0000000100F9
:00000001FF
