:100000000C9446000C9465000C9465000C946500FB
:100010000C9465000C9465000C9465000C946500CC
:100020000C9465000C9465000C9465000C946500BC
:100030000C9465000C940C010C9465000C94650004
:100040000C9465000C9465000C9465000C9465009C
:100050000C9465000C9465000C9465000C9465008C
:100060000C9465000C9465000C9465000C9465007C
:100070000C9465000C9465000C9465000C9465006C
:100080000C9465000C9465000C94650011241FBE4F
:10009000CFEFD0E4DEBFCDBF11E0A0E0B1E0E2ECF5
:1000A000FAE000E00BBF02C007900D92A831B10743
:1000B000D9F721E0A8E1B1E001C01D92A633B20753
:1000C000E1F70E9405040C945F050C940000CF93A7
:1000D000DF9300D01F92CDB7DEB789837B836A831D
:1000E00089818A3031F48A819B81BC018DE00E9434
:1000F000670080EC90E0FC018081882F90E08072A6
:100100009927892BB1F386EC90E02981FC012083AB
:1001100080E090E00F900F900F90DF91CF910895C5
:10012000CF93DF9300D000D0CDB7DEB769837A8359
:100130008B839C8389819A81AB81BC8180930E01E2
:1001400090930F01A0931001B093110180910E01C3
:1001500090910F01A0911001B091110180931901AC
:1001600090931A01A0931B01B0931C0100000F9003
:100170000F900F900F90DF91CF910895CF93DF9361
:10018000CDB7DEB781E890E02BE0FC01208388E862
:1001900090E02DE730E0FC01318320838FE690E092
:1001A00022E0FC01208384E890E0FC0111821082AF
:1001B00080910E0190910F01A0911001B091110159
:1001C0008093190190931A01A0931B01B0931C0115
:1001D0008FE590E02FE530E0F90120812068FC01F7
:1001E00020830000DF91CF910895CF93DF93CDB7A7
:1001F000DEB781E890E0FC0110820000DF91CF9132
:100200000895CF93DF93CDB7DEB781E080931801D7
:100210000000DF91CF9108951F920F9200905F0030
:100220000F92112400905B000F922F933F934F93F6
:100230005F936F937F938F939F93AF93BF93EF934E
:10024000FF93CF93DF93CDB7DEB7809119019091E3
:100250001A01A0911B01B0911C010197A109B109DC
:100260008093190190931A01A0931B01B0931C0174
:100270008091190190911A01A0911B01B0911C016C
:10028000892B8A2B8B2B91F40E94010180910E0106
:1002900090910F01A0911001B0911101809319016B
:1002A00090931A01A0931B01B0931C010000DF91F1
:1002B000CF91FF91EF91BF91AF919F918F917F91DE
:1002C0006F915F914F913F912F910F9000925B0042
:1002D0000F9000925F000F901F901895CF93DF93BF
:1002E00000D01F92CDB7DEB789836A834B838B81A1
:1002F000882371F08A81282F30E081E090E002C0ED
:10030000880F991F2A95E2F7982F8981892B0EC0B3
:100310008A81282F30E081E090E002C0880F991F89
:100320002A95E2F7982F9095898189230F900F9055
:100330000F90DF91CF910895CF93DF9300D0CDB789
:10034000DEB789836A838A81282F30E081E090E0DC
:1003500002C0880F991F2A95E2F7982F8981892377
:100360000F900F90DF91CF9108950F931F93CF932C
:10037000DF93CDB7DEB708E210E040E064E08FEF36
:100380000E946E01F8018083000086E290E0FC018B
:100390008081809560E00E949C01882311F081E3B8
:1003A000D3C086E290E0FC018081809561E00E94EC
:1003B0009C01882311F084E3C7C086E290E0FC0131
:1003C0008081809562E00E949C01882311F087E380
:1003D000BBC086E290E0FC018081809563E00E94D2
:1003E0009C01882311F08AE2AFC008E210E040E0EF
:1003F00065E08FEF0E946E01F8018083000086E2C5
:1004000090E0FC018081809560E00E949C0188233F
:1004100011F082E399C086E290E0FC018081809532
:1004200061E00E949C01882311F085E38DC086E283
:1004300090E0FC018081809562E00E949C0188230D
:1004400011F088E381C086E290E0FC018081809514
:1004500063E00E949C01882311F080E375C008E2EC
:1004600010E040E066E08FEF0E946E01F8018083AB
:10047000000086E290E0FC018081809560E00E94AF
:100480009C01882311F083E35FC086E290E0FC01C9
:100490008081809561E00E949C01882311F086E3B1
:1004A00053C086E290E0FC018081809562E00E946A
:1004B0009C01882311F089E347C086E290E0FC01AB
:1004C0008081809563E00E949C01882311F083E283
:1004D0003BC008E210E040E067E08FEF0E946E0151
:1004E000F8018083000086E290E0FC018081809525
:1004F00060E00E949C01882311F081E425C086E21F
:1005000090E0FC018081809561E00E949C0188233D
:1005100011F082E419C086E290E0FC0180818095B0
:1005200062E00E949C01882311F083E40DC086E202
:1005300090E0FC018081809563E00E949C0188230B
:1005400011F084E401C080E0DF91CF911F910F9101
:100550000895CF93DF93CDB7DEB72C970FB6F894FD
:10056000DEBF0FBECDBF6D837E838F8398872987C3
:100570003A874B875C878D819E81AF81B8852985BD
:100580003A854B855C85BC01CD010E943D05DC01AF
:10059000CB0189839A83AB83BC8389819A81AB81A8
:1005A000BC81892B8A2B8B2B29F489859A85AB8575
:1005B000BC8511C089859A85AB85BC858D839E835A
:1005C000AF83B88789819A81AB81BC8189879A87FB
:1005D000AB87BC87D0CFBC01CD012C960FB6F89469
:1005E000DEBF0FBECDBFDF91CF910895CF93DF93D4
:1005F000CDB7DEB728970FB6F894DEBF0FBECDBFDC
:1006000098878F8385E0E2E1F1E0DE0112960190A8
:100610000D928A95E1F70E94B50189838F819885B3
:100620008230910509F466C0833091052CF400975F
:1006300071F0019789F070C084309105D1F0843059
:1006400091050CF44AC0059709F461C065C081E0CA
:1006500090E098878F8364C08981833229F482E097
:1006600090E098878F835CC081E090E098878F83CB
:1006700057C080913501882F90E09E012E5F3F4F3B
:10068000820F931FFC0190818981981799F48091C2
:100690003501843029F485E090E098878F833FC04E
:1006A000809135018F5F8093350182E090E09887DB
:1006B0008F8335C080913501882F90E09E012E5F99
:1006C0003F4F820F931FFC0190818981981739F168
:1006D00081E090E098878F8322C08981882329F068
:1006E00084E090E098878F831BC083E090E0988738
:1006F0008F8316C08981882329F483E090E098874E
:100700008F830EC082E090E098878F8309C081E0DC
:1007100090E098878F8304C018861F8201C0000074
:100720008F81988582309105C1F0833091052CF43A
:100730000097A9F0019751F017C08430910589F016
:100740008430910584F0059721F00EC01092350198
:100750000BC081E080931D0107C0000005C00000B0
:1007600003C0000001C000008F81988528960FB655
:10077000F894DEBF0FBECDBFDF91CF910895CF9328
:10078000DF9300D01F92CDB7DEB79B838A83198297
:100790008A819B81009719F0019769F018C08091B8
:1007A0001D01882329F081E090E09B838A8312C099
:1007B0001B821A820FC080913401882319F01B829A
:1007C0001A8208C081E090E09B838A8303C01B8269
:1007D0001A8200008A819B81009719F0019729F005
:1007E00007C0198210921D0103C081E089830000B7
:1007F00085E290E02981FC0120838A819B810F9012
:100800000F900F90DF91CF9108950F931F93CF9387
:10081000DF93CDB7DEB727970FB6F894DEBF0FBED4
:10082000CDBF84E290E02FE7FC01208385E290E0D9
:1008300020E8FC01208387E290E020EFFC01208388
:1008400088E290E02FE0FC0120838EE191E09D831F
:100850008C8389E291E09F838E8382E090E09B838A
:100860008A8310921E0181E090E0A0E0B0E08093C6
:100870001F0190932001A0932101B0932201809148
:100880001F0190912001A0912101B091220180933C
:10089000230190932401A0932501B093260186EFB4
:1008A00092E090932801809327011092290181E022
:1008B00090E0A0E0B0E080932A0190932B01A093F8
:1008C0002C01B0932D0180912A0190912B01A091D0
:1008D0002C01B0912D0180932E0190932F01A093B4
:1008E0003001B09331018FEB93E09093330180930B
:1008F000320165E070E080E090E00E9490000E948C
:10090000BE0083E290E0FC01808180958078809336
:1009100034011982A1C08981882F90E0880F991F26
:100920009E012F5F3F4F820F931F0396FC01808132
:100930009181FC0125813681478150858981882FED
:1009400090E0880F991FBE016F5F7F4F860F971F42
:100950000396FC0180819181FC0181819281A381B8
:10096000B481281739074A075B0709F049C0898114
:10097000882F90E0880F991F9E012F5F3F4F820FB5
:10098000931F0396FC01008111818981882F90E0DB
:10099000880F991F9E012F5F3F4F820F931F039671
:1009A000FC0180819181FC01218532858981882F1C
:1009B00090E0880F991FAE014F5F5F4F840F951F26
:1009C0000396FC0180819181FC018081082E000C3E
:1009D000990BF9010995F80180838981882F90E0AE
:1009E000880F991F9E012F5F3F4F820F931F039621
:1009F000FC0180819181FC0115821682178210868C
:100A00008981882F90E0880F991F9E012F5F3F4FAB
:100A1000820F931F0396FC01208131818981882FE9
:100A200090E0880F991FAE014F5F5F4F840F951FB5
:100A30000396FC0180819181FC0185819681A781CB
:100A4000B0850196A11DB11DF90185839683A78309
:100A5000B08789818F5F89838981282F30E08A81DF
:100A60009B812817390708F456CF000080911801A0
:100A70008823E1F31092180144CFA1E21A2EAA1B99
:100A8000BB1BFD010DC0AA1FBB1FEE1FFF1FA2173E
:100A9000B307E407F50720F0A21BB30BE40BF50B3B
:100AA000661F771F881F991F1A9469F760957095C4
:100AB000809590959B01AC01BD01CF010895F894FC
:020AC000FFCF66
:100AC20000000002000000006700000000000100BA
:080AD20000003132333435001D
:00000001FF
