:100000000C948B000C94AA000C94AA000C94AA00E7
:100010000C94AA000C94AA000C94AA000C94AA00B8
:100020000C94AA000C94AA000C94AA000C94AA00A8
:100030000C94AA000C9451010C94AA000C94AA00F0
:100040000C94AA000C94AA000C94AA000C94AA0088
:100050000C94AA000C94AA000C94AA000C94AA0078
:100060000C94AA000C94AA000C94AA000C94AA0068
:100070000C94AA000C94AA000C94AA000C94AA0058
:100080000C94AA000C94AA000C94AA007803BC0358
:10009000BC03BC03BC03BC03BC03BC03BC03BC0368
:1000A000BC03BC03BC03BC03BC03BC03BC03BC0358
:1000B000BC03BC03BC03BC03BC03BC03BC03BC0348
:1000C000BC03BC03BC03BC03BC03BC03BC03BC0338
:1000D000BC03B803BC03BC03BC03BC03BC03BC032C
:1000E000B003BC03BC03BC03BC03BC03B4037C036C
:1000F0008003840388038C039003940398039C0378
:10010000BC03BC03BC03BC03BC03BC03BC03A00313
:10011000A403A803AC0311241FBECFEFD0E4DEBFBD
:10012000CDBF11E0A0E0B1E0E2E0FAE000E00BBFFB
:1001300002C007900D92A231B107D9F721E0A2E1E8
:10014000B1E001C01D92A532B207E1F70E94D003D1
:100150000C94FF040C940000CF93DF9300D01F9207
:10016000CDB7DEB789837B836A8389818A3031F496
:100170008A819B81BC018DE00E94AC0080EC90E004
:10018000FC018081882F90E080729927892BB1F340
:1001900086EC90E02981FC01208380E090E00F90C4
:1001A0000F900F90DF91CF910895CF93DF9300D000
:1001B00000D0CDB7DEB769837A838B839C83898136
:1001C0009A81AB81BC8180930E0190930F01A09323
:1001D0001001B093110180910E0190910F01A09137
:1001E0001001B09111018093130190931401A09319
:1001F0001501B093160100000F900F900F900F9013
:10020000DF91CF910895CF93DF93CDB7DEB781E82B
:1002100090E02BE0FC01208388E890E02DE730E0BF
:10022000FC01318320838FE690E022E0FC012083F3
:1002300084E890E0FC011182108280910E0190917F
:100240000F01A0911001B0911101809313019093BF
:100250001401A0931501B09316018FE590E02FE5EE
:1002600030E0F90120812068FC0120830000DF914B
:10027000CF910895CF93DF93CDB7DEB781E890E0BB
:10028000FC0110820000DF91CF910895CF93DF939E
:10029000CDB7DEB781E0809312010000DF91CF91EE
:1002A00008951F920F9200905F000F92112400900A
:1002B0005B000F922F933F934F935F936F937F93C6
:1002C0008F939F93AF93BF93EF93FF93CF93DF935E
:1002D000CDB7DEB78091130190911401A091150163
:1002E000B09116010197A109B10980931301909370
:1002F0001401A0931501B093160180911301909100
:100300001401A0911501B0911601892B8A2B8B2B1A
:1003100091F40E94460180910E0190910F01A091ED
:100320001001B09111018093130190931401A093D7
:100330001501B09316010000DF91CF91FF91EF916D
:10034000BF91AF919F918F917F916F915F914F91ED
:100350003F912F910F9000925B000F9000925F00F1
:100360000F901F901895CF93DF9300D01F92CDB7B9
:10037000DEB789836A834B838B81882371F08A81FE
:10038000282F30E081E090E002C0880F991F2A9565
:10039000E2F7982F8981892B0EC08A81282F30E0BF
:1003A00081E090E002C0880F991F2A95E2F7982F0C
:1003B0009095898189230F900F900F90DF91CF91B5
:1003C0000895CF93DF9300D0CDB7DEB789836A83DA
:1003D0008A81282F30E081E090E002C0880F991FC9
:1003E0002A95E2F7982F898189230F900F90DF914A
:1003F000CF9108950F931F93CF93DF93CDB7DEB7BF
:1004000008E210E040E064E08FEF0E94B301F801E1
:100410008083000086E290E0FC018081809560E0AE
:100420000E94E101882311F081E3D3C086E290E0CD
:10043000FC018081809561E00E94E101882311F038
:1004400084E3C7C086E290E0FC018081809562E091
:100450000E94E101882311F087E3BBC086E290E0AF
:10046000FC018081809563E00E94E101882311F006
:100470008AE2AFC008E210E040E065E08FEF0E9442
:10048000B301F8018083000086E290E0FC018081E6
:10049000809560E00E94E101882311F082E399C019
:1004A00086E290E0FC018081809561E00E94E1019C
:1004B000882311F085E38DC086E290E0FC01808105
:1004C000809562E00E94E101882311F088E381C0F9
:1004D00086E290E0FC018081809563E00E94E1016A
:1004E000882311F080E375C008E210E040E066E088
:1004F0008FEF0E94B301F8018083000086E290E054
:10050000FC018081809560E00E94E101882311F068
:1005100083E35FC086E290E0FC018081809561E02A
:100520000E94E101882311F086E353C086E290E047
:10053000FC018081809562E00E94E101882311F036
:1005400089E347C086E290E0FC018081809563E00A
:100550000E94E101882311F083E23BC008E210E031
:1005600040E067E08FEF0E94B301F8018083000054
:1005700086E290E0FC018081809560E00E94E101CC
:10058000882311F081E425C086E290E0FC0180819F
:10059000809561E00E94E101882311F082E419C096
:1005A00086E290E0FC018081809562E00E94E1019A
:1005B000882311F083E40DC086E290E0FC01808185
:1005C000809563E00E94E101882311F084E401C07A
:1005D00080E0DF91CF911F910F910895CF93DF932A
:1005E000CDB7DEB72C970FB6F894DEBF0FBECDBFE8
:1005F0006D837E838F83988729873A874B875C87B3
:100600008D819E81AF81B88529853A854B855C8532
:10061000BC01CD010E94D404DC01CB0189839A8303
:10062000AB83BC8389819A81AB81BC81892B8A2B66
:100630008B2B29F489859A85AB85BC8511C089856A
:100640009A85AB85BC858D839E83AF83B88789816E
:100650009A81AB81BC8189879A87AB87BC87D0CFD1
:10066000BC01CD012C960FB6F894DEBF0FBECDBFF6
:10067000DF91CF910895CF93DF9300D01F92CDB734
:10068000DEB79B838A830E94FA0189838A819B81DA
:10069000009719F0019731F00AC081E090E09B8348
:1006A0008A8308C081E090E09B838A8303C01B8219
:1006B0001A8200008A819B81009709F462C0019729
:1006C00009F060C08981882F90E0092E000CAA0BE8
:1006D000BB0B40E050E024E430E0841B950B28176E
:1006E000390708F449C08A5B9F4FFC010C94F6045B
:1006F0008FE18093170144C080E88093170140C0C8
:1007000080E8809317013CC080E88093170138C0CF
:1007100080E88093170134C080E88093170130C0CF
:1007200080E8809317012CC080E88093170128C0CF
:1007300080E88093170124C080E88093170120C0CF
:1007400080E8809317011CC080E88093170118C0CF
:1007500080E88093170114C080E88093170110C0CF
:1007600080E8809317010CC080E88093170108C0CF
:1007700080E88093170104C08BE18093170100008B
:1007800001C0000085E290E020911701FC01208368
:100790008A819B810F900F900F90DF91CF910895E8
:1007A0000F931F93CF93DF9300D000D01F92CDB74C
:1007B000DEB784E290E02FEFFC01208385E290E039
:1007C000FC01108287E290E020EFFC01208388E2A8
:1007D00090E02FE0FC01208388E191E09D838C83F1
:1007E00081E090E09B838A831092180181E090E081
:1007F000A0E0B0E08093190190931A01A0931B012F
:10080000B0931C018091190190911A01A0911B01D4
:10081000B0911C0180931D0190931E01A0931F01B4
:10082000B09320018BE393E0909322018093210108
:1008300062E070E080E090E00E94D5000E94030139
:100840001982A1C08981882F90E0880F991F9E018D
:100850002F5F3F4F820F931F0396FC018081918190
:10086000FC0125813681478150858981882F90E060
:10087000880F991FBE016F5F7F4F860F971F0396EA
:10088000FC0180819181FC0181819281A381B481ED
:10089000281739074A075B0709F049C08981882F63
:1008A00090E0880F991F9E012F5F3F4F820F931F8B
:1008B0000396FC01008111818981882F90E0880FC7
:1008C000991F9E012F5F3F4F820F931F0396FC01DC
:1008D00080819181FC01218532858981882F90E07A
:1008E000880F991FAE014F5F5F4F840F951F0396CE
:1008F000FC0180819181FC018081082E000C990B04
:10090000F9010995F80180838981882F90E0880F8B
:10091000991F9E012F5F3F4F820F931F0396FC018B
:1009200080819181FC01158216821782108689814F
:10093000882F90E0880F991F9E012F5F3F4F820FF5
:10094000931F0396FC01208131818981882F90E0DB
:10095000880F991FAE014F5F5F4F840F951F03965D
:10096000FC0180819181FC0185819681A781B08500
:100970000196A11DB11DF90185839683A783B087D8
:1009800089818F5F89838981282F30E08A819B81CB
:100990002817390708F456CF0000809112018823E8
:1009A000E1F3109212014CCFA1E21A2EAA1BBB1B3D
:1009B000FD010DC0AA1FBB1FEE1FFF1FA217B3072B
:1009C000E407F50720F0A21BB30BE40BF50B661F41
:1009D000771F881F991F1A9469F760957095809505
:1009E00090959B01AC01BD01CF010895EE0FFF1F53
:1009F0000024001C0BBE0790F691E02D0994F8949A
:020A0000FFCF26
:100A02000000000200000000AC0000000000010035
:020A12000000E2
:00000001FF
