:100000000C9446000C9465000C9465000C946500FB
:100010000C9465000C9465000C9465000C946500CC
:100020000C9465000C9465000C9465000C946500BC
:100030000C9465000C940E020C9465000C94650001
:100040000C9465000C9465000C9465000C9465009C
:100050000C9465000C9465000C9465000C9465008C
:100060000C9465000C9465000C9465000C9465007C
:100070000C9465000C9465000C9465000C9465006C
:100080000C9465000C9465000C94650011241FBE4F
:10009000CFEFD0E4DEBFCDBF11E0A0E0B1E0E0E4FF
:1000A000F9E000E00BBF02C007900D92AA31B10742
:1000B000D9F721E0AAE1B1E001C01D92A733B20750
:1000C000E1F70E944B030C949E040C940000CF9324
:1000D000DF9300D01F92CDB7DEB789837B836A831D
:1000E00089818A3031F48A819B81BC018DE00E9434
:1000F000670080EC90E0FC018081882F90E08072A6
:100100009927892BB1F386EC90E02981FC012083AB
:1001100080E090E00F900F900F90DF91CF910895C5
:10012000CF93DF93CDB7DEB781E090E00E94BC00B3
:100130000000DF91CF910895CF93DF93CDB7DEB765
:1001400084E690E00E94620188E390E00E94BC0097
:1001500086E090E00E94BC008FE090E00E94BC002E
:1001600081E090E00E94BC008AE090E00E94620181
:100170000000DF91CF910895CF93DF931F92CDB709
:10018000DEB789838BE290E02BE230E0F901208139
:100190002F7BFC01208388E290E02981FC012083F1
:1001A0008BE290E02BE230E0F90120812068FC0135
:1001B000208300008BE290E02BE230E0F901208107
:1001C0002F77FC01208382E090E00E946201000012
:1001D0000F90DF91CF910895CF93DF931F92CDB70A
:1001E000DEB789838BE290E02BE230E0F9012081D9
:1001F0002064FC01208388E290E02981FC012083B7
:100200008BE290E02BE230E0F90120812068FC01D4
:10021000208300008BE290E02BE230E0F9012081A6
:100220002F77FC01208381E090E00E9462010000B2
:100230000F90DF91CF910895CF93DF9300D000D03E
:10024000CDB7DEB78A837C836B830E9490008A815E
:10025000898313C0898191E0980F9983882F90E05A
:100260000E944B018B819C819C012F5F3F4F3C83FF
:100270002B83FC0180810E94EC008B819C81FC011E
:100280008081882339F700000F900F900F900F9016
:10029000DF91CF910895CF93DF931F92CDB7DEB753
:1002A00089838981813128F4898181580E94BC0029
:1002B00004C0898181550E94BC0000000F90DF912D
:1002C000CF910895CF93DF9300D000D000D0CDB769
:1002D000DEB79E838D831A82198213C01C821B8213
:1002E00006C000008B819C8101969C838B838B814F
:1002F0009C8187309340ACF389819A8101969A83DF
:10030000898329813A818D819E812817390734F3A9
:10031000000026960FB6F894DEBF0FBECDBFDF916A
:10032000CF910895CF93DF9300D000D0CDB7DEB743
:1003300069837A838B839C8389819A81AB81BC8119
:1003400080930E0190930F01A0931001B0931101BF
:1003500080910E0190910F01A0911001B0911101B7
:1003600080931B0190931C01A0931D01B0931E016B
:1003700000000F900F900F900F90DF91CF91089594
:10038000CF93DF93CDB7DEB781E890E02BE0FC019F
:10039000208388E890E02DE730E0FC013183208362
:1003A0008FE690E022E0FC01208384E890E0FC01ED
:1003B0001182108280910E0190910F01A091100185
:1003C000B091110180931B0190931C01A0931D011A
:1003D000B0931E018FE590E02FE530E0F901208118
:1003E0002068FC0120830000DF91CF910895CF9316
:1003F000DF93CDB7DEB781E890E0FC01108200000A
:10040000DF91CF910895CF93DF93CDB7DEB781E031
:1004100080931A010000DF91CF9108951F920F92EF
:1004200000905F000F92112400905B000F922F93B9
:100430003F934F935F936F937F938F939F93AF936C
:10044000BF93EF93FF93CF93DF93CDB7DEB7809148
:100450001B0190911C01A0911D01B0911E010197FB
:10046000A109B10980931B0190931C01A0931D0168
:10047000B0931E0180911B0190911C01A0911D0160
:10048000B0911E01892B8A2B8B2B91F40E940302C1
:1004900080910E0190910F01A0911001B091110176
:1004A00080931B0190931C01A0931D01B0931E012A
:1004B0000000DF91CF91FF91EF91BF91AF919F919C
:1004C0008F917F916F915F914F913F912F910F90FD
:1004D00000925B000F9000925F000F901F901895A4
:1004E000CF93DF93CDB7DEB72C970FB6F894DEBF6E
:1004F0000FBECDBF6D837E838F83988729873A8710
:100500004B875C878D819E81AF81B88529853A852F
:100510004B855C85BC01CD010E947C04DC01CB01D4
:1005200089839A83AB83BC8389819A81AB81BC81A7
:10053000892B8A2B8B2B29F489859A85AB85BC85E1
:1005400011C089859A85AB85BC858D839E83AF83D9
:10055000B88789819A81AB81BC8189879A87AB876B
:10056000BC87D0CFBC01CD012C960FB6F894DEBF6E
:100570000FBECDBFDF91CF910895CF93DF9300D011
:10058000CDB7DEB79A83898389819A81009719F064
:10059000019731F011C081E090E09A8389830FC008
:1005A00080913601882329F081E090E09A83898345
:1005B00006C01A82198203C01A821982000089813A
:1005C0009A81009719F0019721F013C010921F0132
:1005D00013C080911F01882F90E08E5E9E4FFC011A
:1005E00080818093360180911F018F5F80931F016E
:1005F00003C01A821982000089819A810F900F909E
:10060000DF91CF910895CF93DF9300D0CDB7DEB7C0
:100610009A83898389819A818130910551F0823052
:100620009105A9F0892BB1F481E090E09A83898348
:1006300014C080913601882329F081E090E09A83EC
:1006400089830BC082E090E09A83898306C01A8276
:10065000198203C01A821982000089819A8181302F
:10066000910551F08230910561F0892B09F00BC0A2
:1006700081E00E944B0108C0809136010E94EC008D
:1006800003C00E949000000089819A810F900F9012
:10069000DF91CF9108950F931F93CF93DF93CDB741
:1006A000DEB727970FB6F894DEBF0FBECDBF87E247
:1006B00090E02FEFFC01208388E290E0FC011082A3
:1006C0008AE290E02FEFFC0120838BE290E0FC01B6
:1006D000108280E291E09D838C838BE291E09F8386
:1006E0008E8382E090E09B838A83109220018AEFC0
:1006F00090E0A0E0B0E08093210190932201A093CC
:100700002301B09324018091210190912201A091B5
:100710002301B09124018093250190932601A09399
:100720002701B093280183E093E090932A018093FE
:10073000290110922B018AEF90E0A0E0B0E08093B5
:100740002C0190932D01A0932E01B0932F01809145
:100750002C0190912D01A0912E01B0912F01809339
:10076000300190933101A0933201B09333018DEBAE
:1007700092E090933501809334016AEF70E080E05D
:1007800090E00E9492010E94C0010E949C00198288
:10079000A2C08981882F90E0880F991F9E012F5F4A
:1007A0003F4F820F931F0396FC0180819181FC01D2
:1007B00025813681478150858981882F90E0880F77
:1007C000991FBE016F5F7F4F860F971F0396FC0135
:1007D00080819181FC0181819281A381B48128175C
:1007E00039074A075B0709F049C08981882F90E0E3
:1007F000880F991F9E012F5F3F4F820F931F039613
:10080000FC01008111818981882F90E0880F991F58
:100810009E012F5F3F4F820F931F0396FC01808143
:100820009181FC01218532858981882F90E0880F94
:10083000991FAE014F5F5F4F840F951F0396FC0118
:1008400080819181FC018081082E000C990BF901B7
:100850000995F80180838981882F90E0880F991F7E
:100860009E012F5F3F4F820F931F0396FC018081F3
:100870009181FC0115821682178210868981882F4A
:1008800090E0880F991F9E012F5F3F4F820F931FAB
:100890000396FC01208131818981882F90E0880FA7
:1008A000991FAE014F5F5F4F840F951F0396FC01A8
:1008B00080819181FC0185819681A781B0858650D8
:1008C0009F4FAF4FBF4FF90185839683A783B087B2
:1008D00089818F5F89838981282F30E08A819B817C
:1008E0002817390708F455CF000080911A01882392
:1008F000E1F310921A014BCFA1E21A2EAA1BBB1BE7
:10090000FD010DC0AA1FBB1FEE1FFF1FA217B307DB
:10091000E407F50720F0A21BB30BE40BF50B661FF1
:10092000771F881F991F1A9469F7609570958095B5
:1009300090959B01AC01BD01CF010895F894FFCFC4
:10094000000000020000000067000000000001003D
:0A09500000006B6B756E76303031DD
:00000001FF
