:100000000C9446000C9465000C9465000C946500FB
:100010000C9465000C9465000C9465000C946500CC
:100020000C9465000C9465000C9465000C946500BC
:100030000C9465000C940E020C9465000C94650001
:100040000C9465000C9465000C9465000C9465009C
:100050000C9465000C9465000C9465000C9465008C
:100060000C9465000C9465000C9465000C9465007C
:100070000C9465000C9465000C9465000C9465006C
:100080000C9465000C9465000C94650011241FBE4F
:10009000CFEFD0E4DEBFCDBF11E0A0E0B1E0E4E3FC
:1000A000FBE000E00BBF02C007900D92AE32B1073B
:1000B000D9F721E0AEE2B1E001C01D92AF34B20742
:1000C000E1F70E941D040C9498050C940000CF9356
:1000D000DF9300D01F92CDB7DEB789837B836A831D
:1000E00089818A3031F48A819B81BC018DE00E9434
:1000F000670080EC90E0FC018081882F90E08072A6
:100100009927892BB1F386EC90E02981FC012083AB
:1001100080E090E00F900F900F90DF91CF910895C5
:10012000CF93DF93CDB7DEB781E090E00E94BC00B3
:100130000000DF91CF910895CF93DF93CDB7DEB765
:1001400084E690E00E94620188E390E00E94BC0097
:1001500086E090E00E94BC008FE090E00E94BC002E
:1001600081E090E00E94BC008AE090E00E94620181
:100170000000DF91CF910895CF93DF931F92CDB709
:10018000DEB789838BE290E02BE230E0F901208139
:100190002F7BFC01208388E290E02981FC012083F1
:1001A0008BE290E02BE230E0F90120812068FC0135
:1001B000208300008BE290E02BE230E0F901208107
:1001C0002F77FC01208382E090E00E946201000012
:1001D0000F90DF91CF910895CF93DF931F92CDB70A
:1001E000DEB789838BE290E02BE230E0F9012081D9
:1001F0002064FC01208388E290E02981FC012083B7
:100200008BE290E02BE230E0F90120812068FC01D4
:10021000208300008BE290E02BE230E0F9012081A6
:100220002F77FC01208381E090E00E9462010000B2
:100230000F90DF91CF910895CF93DF9300D000D03E
:10024000CDB7DEB78A837C836B830E9490008A815E
:10025000898313C0898191E0980F9983882F90E05A
:100260000E944B018B819C819C012F5F3F4F3C83FF
:100270002B83FC0180810E94EC008B819C81FC011E
:100280008081882339F700000F900F900F900F9016
:10029000DF91CF910895CF93DF931F92CDB7DEB753
:1002A00089838981813128F4898181580E94BC0029
:1002B00004C0898181550E94BC0000000F90DF912D
:1002C000CF910895CF93DF9300D000D000D0CDB769
:1002D000DEB79E838D831A82198213C01C821B8213
:1002E00006C000008B819C8101969C838B838B814F
:1002F0009C8187309340ACF389819A8101969A83DF
:10030000898329813A818D819E812817390734F3A9
:10031000000026960FB6F894DEBF0FBECDBFDF916A
:10032000CF910895CF93DF9300D000D0CDB7DEB743
:1003300069837A838B839C8389819A81AB81BC8119
:1003400080930E0190930F01A0931001B0931101BF
:1003500080910E0190910F01A0911001B0911101B7
:1003600080932F0190933001A0933101B09332011B
:1003700000000F900F900F900F90DF91CF91089594
:10038000CF93DF93CDB7DEB781E890E02BE0FC019F
:10039000208388E890E02DE730E0FC013183208362
:1003A0008FE690E022E0FC01208384E890E0FC01ED
:1003B0001182108280910E0190910F01A091100185
:1003C000B091110180932F0190933001A0933101DE
:1003D000B09332018FE590E02FE530E0F901208104
:1003E0002068FC0120830000DF91CF910895CF9316
:1003F000DF93CDB7DEB781E890E0FC01108200000A
:10040000DF91CF910895CF93DF93CDB7DEB781E031
:1004100080932E010000DF91CF9108951F920F92DB
:1004200000905F000F92112400905B000F922F93B9
:100430003F934F935F936F937F938F939F93AF936C
:10044000BF93EF93FF93CF93DF93CDB7DEB7809148
:100450002F0190913001A0913101B09132010197AB
:10046000A109B10980932F0190933001A09331012C
:10047000B093320180912F0190913001A091310110
:10048000B0913201892B8A2B8B2B91F40E940302AD
:1004900080910E0190910F01A0911001B091110176
:1004A00080932F0190933001A0933101B0933201DA
:1004B0000000DF91CF91FF91EF91BF91AF919F919C
:1004C0008F917F916F915F914F913F912F910F90FD
:1004D00000925B000F9000925F000F901F901895A4
:1004E000CF93DF93CDB7DEB72C970FB6F894DEBF6E
:1004F0000FBECDBF6D837E838F83988729873A8710
:100500004B875C878D819E81AF81B88529853A852F
:100510004B855C85BC01CD010E947605DC01CB01D9
:1005200089839A83AB83BC8389819A81AB81BC81A7
:10053000892B8A2B8B2B29F489859A85AB85BC85E1
:1005400011C089859A85AB85BC858D839E83AF83D9
:10055000B88789819A81AB81BC8189879A87AB876B
:10056000BC87D0CFBC01CD012C960FB6F894DEBF6E
:100570000FBECDBFDF91CF910895CF93DF9300D011
:10058000CDB7DEB79A83898389819A8182309105BC
:1005900009F440C0833091052CF4009759F001977D
:1005A00071F09AC08330910509F457C0049709F49B
:1005B00076C092C081E090E09A83898395C0809153
:1005C0004E01882349F080914B01882329F482E071
:1005D00090E09A8389831DC080914E01882349F45D
:1005E00080914B01882329F083E090E09A838983EE
:1005F00010C080914E01882339F080914B018823EF
:1006000019F01A82198205C081E090E09A838983EB
:100610006BC06AC080914E01882339F080914B01F4
:10062000882319F01A82198217C080914E018823FD
:1006300049F080914B01882329F482E090E09A836D
:1006400089830AC080914E01882309F048C081E067
:1006500090E09A83898343C042C080914E018823F1
:1006600039F080914B01882319F01A82198216C043
:1006700080914E01882349F480914B01882329F011
:1006800083E090E09A83898309C080914B0188239D
:1006900041F581E090E09A83898323C022C0809154
:1006A0004E01882339F080914B01882319F01A827A
:1006B000198219C080914D01882329F084E090E0CF
:1006C0009A83898310C080914D01882361F481E071
:1006D00090E09A83898307C01A82198205C00000BE
:1006E00003C0000001C0000089819A818230910519
:1006F00029F1833091052CF4009751F0019789F08E
:100700004BC08330910571F1049709F43FC044C098
:100710001092330181E08093120181E080933401D3
:100720003EC01092340180913301882F90E08D5E9D
:100730009E4FFC01808180934C0131C080914C011F
:10074000813629F08091330181508093330180916B
:100750003301882F90E08D5E9E4FFC018081809355
:100760004C011DC080914C018A3729F080913301E2
:100770008F5F8093330180913301882F90E08D5EED
:100780009E4FFC01808180934C0109C08091120131
:100790008F5F8093120103C01A8219820000898141
:1007A0009A810F900F90DF91CF910895CF93DF93AF
:1007B00000D0CDB7DEB79A83898389819A8100976B
:1007C00019F0019731F015C081E090E09A83898398
:1007D00014C080913401882329F481E090E09A8349
:1007E00089830AC080913401813031F41A821982E0
:1007F00003C01A82198201C0000089819A81009782
:1008000019F0019751F012C00E94900081E00E94FF
:100810004B0181E60E94EC0009C0809112010E9408
:100820004B0180914C010E94EC00000089819A816B
:100830000F900F90DF91CF9108950F931F93CF9357
:10084000DF93CDB7DEB727970FB6F894DEBF0FBEA4
:10085000CDBF87E290E02FEFFC01208388E290E09B
:10086000FC0110828AE290E02FEFFC0120838BE2F2
:1008700090E0FC01108281E290E0FC01108282E2B3
:1008800090E02FEFFC01208385E391E09D838C8332
:1008900080E491E09F838E8382E090E09B838A8353
:1008A0001092350184EF91E0A0E0B0E08093360132
:1008B00090933701A0933801B093390180913601AC
:1008C00090913701A0913801B091390180933A019C
:1008D00090933B01A0933C01B0933D0186ED93E0E2
:1008E00090933F0180933E011092400184EF91E08C
:1008F000A0E0B0E08093410190934201A0934301B6
:10090000B09344018091410190914201A091430133
:10091000B09144018093450190934601A093470113
:10092000B09348018DEB92E090934A018093490186
:1009300064EF71E080E090E00E9492010E94C001AB
:100940000E949C0080E290E0FC018081882F90E072
:100950008170992721E0892B09F020E0822F809374
:100960004E0180E290E0FC0180818095827080934E
:100970004B0180E290E0FC0180818095847080933F
:100980004D011982A2C08981882F90E0880F991F9C
:100990009E012F5F3F4F820F931F0396FC018081C2
:1009A0009181FC0125813681478150858981882F7D
:1009B00090E0880F991FBE016F5F7F4F860F971FD2
:1009C0000396FC0180819181FC0181819281A38148
:1009D000B481281739074A075B0709F049C08981A4
:1009E000882F90E0880F991F9E012F5F3F4F820F45
:1009F000931F0396FC01008111818981882F90E06B
:100A0000880F991F9E012F5F3F4F820F931F039600
:100A1000FC0180819181FC01218532858981882FAB
:100A200090E0880F991FAE014F5F5F4F840F951FB5
:100A30000396FC0180819181FC018081082E000CCD
:100A4000990BF9010995F80180838981882F90E03D
:100A5000880F991F9E012F5F3F4F820F931F0396B0
:100A6000FC0180819181FC0115821682178210861B
:100A70008981882F90E0880F991F9E012F5F3F4F3B
:100A8000820F931F0396FC01208131818981882F79
:100A900090E0880F991FAE014F5F5F4F840F951F45
:100AA0000396FC0180819181FC0185819681A7815B
:100AB000B08586509F4FAF4FBF4FF9018583968316
:100AC000A783B08789818F5F89838981282F30E050
:100AD0008A819B812817390708F455CF000080913F
:100AE0002E018823E1F310922E012CCFA1E21A2EC1
:100AF000AA1BBB1BFD010DC0AA1FBB1FEE1FFF1FC2
:100B0000A217B307E407F50720F0A21BB30BE40B11
:100B1000F50B661F771F881F991F1A9469F7609558
:100B20007095809590959B01AC01BD01CF01089512
:040B3000F894FFCF67
:100B34000000000200000000670000000000010047
:100B44000000016162636465666768696A6B6C6D65
:0E0B54006E6F707172737475767778797A00AF
:00000001FF
