:100000000C9446000C9465000C9465000C946500FB
:100010000C9465000C9465000C9465000C946500CC
:100020000C9465000C9465000C9465000C946500BC
:100030000C9465000C940E020C9465000C94650001
:100040000C9465000C9465000C9465000C9465009C
:100050000C9465000C9465000C9465000C9465008C
:100060000C9465000C9465000C9465000C9465007C
:100070000C9465000C9465000C9465000C9465006C
:100080000C9465000C9465000C94650011241FBE4F
:10009000CFEFD0E4DEBFCDBF11E0A0E0B1E0ECE4F3
:1000A000F8E000E00BBF02C007900D92A232B1074A
:1000B000D9F721E0A2E2B1E001C01D92A233B2075C
:1000C000E1F70E94FE020C9424040C940000CF93EC
:1000D000DF9300D01F92CDB7DEB789837B836A831D
:1000E00089818A3031F48A819B81BC018DE00E9434
:1000F000670080EC90E0FC018081882F90E08072A6
:100100009927892BB1F386EC90E02981FC012083AB
:1001100080E090E00F900F900F90DF91CF910895C5
:10012000CF93DF93CDB7DEB781E090E00E94BC00B3
:100130000000DF91CF910895CF93DF93CDB7DEB765
:1001400084E690E00E94620188E390E00E94BC0097
:1001500086E090E00E94BC008FE090E00E94BC002E
:1001600081E090E00E94BC008AE090E00E94620181
:100170000000DF91CF910895CF93DF931F92CDB709
:10018000DEB789838BE290E02BE230E0F901208139
:100190002F7BFC01208388E290E02981FC012083F1
:1001A0008BE290E02BE230E0F90120812068FC0135
:1001B000208300008BE290E02BE230E0F901208107
:1001C0002F77FC01208382E090E00E946201000012
:1001D0000F90DF91CF910895CF93DF931F92CDB70A
:1001E000DEB789838BE290E02BE230E0F9012081D9
:1001F0002064FC01208388E290E02981FC012083B7
:100200008BE290E02BE230E0F90120812068FC01D4
:10021000208300008BE290E02BE230E0F9012081A6
:100220002F77FC01208381E090E00E9462010000B2
:100230000F90DF91CF910895CF93DF9300D000D03E
:10024000CDB7DEB78A837C836B830E9490008A815E
:10025000898313C0898191E0980F9983882F90E05A
:100260000E944B018B819C819C012F5F3F4F3C83FF
:100270002B83FC0180810E94EC008B819C81FC011E
:100280008081882339F700000F900F900F900F9016
:10029000DF91CF910895CF93DF931F92CDB7DEB753
:1002A00089838981813128F4898181580E94BC0029
:1002B00004C0898181550E94BC0000000F90DF912D
:1002C000CF910895CF93DF9300D000D000D0CDB769
:1002D000DEB79E838D831A82198213C01C821B8213
:1002E00006C000008B819C8101969C838B838B814F
:1002F0009C8187309340ACF389819A8101969A83DF
:10030000898329813A818D819E812817390734F3A9
:10031000000026960FB6F894DEBF0FBECDBFDF916A
:10032000CF910895CF93DF9300D000D0CDB7DEB743
:1003300069837A838B839C8389819A81AB81BC8119
:1003400080930E0190930F01A0931001B0931101BF
:1003500080910E0190910F01A0911001B0911101B7
:100360008093230190932401A0932501B09326014B
:1003700000000F900F900F900F90DF91CF91089594
:10038000CF93DF93CDB7DEB781E890E02BE0FC019F
:10039000208388E890E02DE730E0FC013183208362
:1003A0008FE690E022E0FC01208384E890E0FC01ED
:1003B0001182108280910E0190910F01A091100185
:1003C000B09111018093230190932401A093250102
:1003D000B09326018FE590E02FE530E0F901208110
:1003E0002068FC0120830000DF91CF910895CF9316
:1003F000DF93CDB7DEB781E890E0FC01108200000A
:10040000DF91CF910895CF93DF93CDB7DEB781E031
:10041000809322010000DF91CF9108951F920F92E7
:1004200000905F000F92112400905B000F922F93B9
:100430003F934F935F936F937F938F939F93AF936C
:10044000BF93EF93FF93CF93DF93CDB7DEB7809148
:10045000230190912401A0912501B09126010197DB
:10046000A109B1098093230190932401A093250150
:10047000B09326018091230190912401A091250140
:10048000B0912601892B8A2B8B2B91F40E940302B9
:1004900080910E0190910F01A0911001B091110176
:1004A0008093230190932401A0932501B09326010A
:1004B0000000DF91CF91FF91EF91BF91AF919F919C
:1004C0008F917F916F915F914F913F912F910F90FD
:1004D00000925B000F9000925F000F901F901895A4
:1004E000CF93DF93CDB7DEB72C970FB6F894DEBF6E
:1004F0000FBECDBF6D837E838F83988729873A8710
:100500004B875C878D819E81AF81B88529853A852F
:100510004B855C85BC01CD010E940204DC01CB014E
:1005200089839A83AB83BC8389819A81AB81BC81A7
:10053000892B8A2B8B2B29F489859A85AB85BC85E1
:1005400011C089859A85AB85BC858D839E83AF83D9
:10055000B88789819A81AB81BC8189879A87AB876B
:10056000BC87D0CFBC01CD012C960FB6F894DEBF6E
:100570000FBECDBFDF91CF910895CF93DF9300D011
:10058000CDB7DEB79A83898389819A8181309105BD
:1005900051F08230910561F0892B79F481E090E08F
:1005A0009A8389830DC082E090E09A83898308C092
:1005B00081E090E09A83898303C01A821982000047
:1005C00089819A818130910549F08230910561F0ED
:1005D000892B09F00CC00E949C0009C064E171E005
:1005E00081E00E941C0103C00E94900000008981EC
:1005F0009A810F900F90DF91CF9108950F931F93E1
:10060000CF93DF9300D000D01F92CDB7DEB787E243
:1006100090E02FEFFC01208388E290E0FC01108243
:100620008AE290E02FEFFC0120838BE290E0FC0156
:10063000108287E291E09D838C8381E090E09B8330
:100640008A831092270188EE93E0A0E0B0E08093C7
:10065000280190932901A0932A01B0932B01809146
:10066000280190912901A0912A01B0912B0180933A
:100670002C0190932D01A0932E01B0932F018DEBAF
:1006800092E0909331018093300168EE73E080E056
:1006900090E00E9492010E94C0011982A2C089814B
:1006A000882F90E0880F991F9E012F5F3F4F820F88
:1006B000931F0396FC0180819181FC012581368185
:1006C000478150858981882F90E0880F991FBE014E
:1006D0006F5F7F4F860F971F0396FC01808191818A
:1006E000FC0181819281A381B481281739074A07CF
:1006F0005B0709F049C08981882F90E0880F991F16
:100700009E012F5F3F4F820F931F0396FC010081D4
:1007100011818981882F90E0880F991F9E012F5F9A
:100720003F4F820F931F0396FC0180819181FC0152
:10073000218532858981882F90E0880F991FAE012D
:100740004F5F5F4F840F951F0396FC01808191815D
:10075000FC018081082E000C990BF9010995F80124
:1007600080838981882F90E0880F991F9E012F5FD9
:100770003F4F820F931F0396FC0180819181FC0102
:1007800015821682178210868981882F90E0880F43
:10079000991F9E012F5F3F4F820F931F0396FC010D
:1007A000208131818981882F90E0880F991FAE01C7
:1007B0004F5F5F4F840F951F0396FC0180819181ED
:1007C000FC0185819681A781B08588519C4FAF4FF0
:1007D000BF4FF90185839683A783B08789818F5F97
:1007E00089838981282F30E08A819B8128173907E6
:1007F00008F455CF0000809122018823E1F3109284
:1008000022014BCFA1E21A2EAA1BBB1BFD010DC07A
:10081000AA1FBB1FEE1FFF1FA217B307E407F507B0
:1008200020F0A21BB30BE40BF50B661F771F881F8C
:10083000991F1A9469F760957095809590959B0122
:0C084000AC01BD01CF010895F894FFCF7A
:10084C000000000200000000670000000000010032
:10085C000000140148656C6C6F20576F726C64213A
:02086C0000008A
:00000001FF
